:020000040800F2
:10000000001B0020A10C0008113100088D0C000815
:100010008D0C00088D0C00088D0C000800000000FD
:10002000000000000000000000000000610D00085A
:100030008D0C000800000000010D0008F91B0008ED
:10004000E90E0008E90E0008E90E0008E90E0008B4
:10005000E90E0008E90E0008E90E0008E90E0008A4
:10006000E90E0008E90E0008E90E0008E90E000894
:10007000E90E0008E90E0008E90E0008E90E000884
:10008000E90E0008E90E0008E90E0008E90E000874
:10009000E90E0008E90E0008E90E0008E90E000864
:1000A000E90E0008E90E0008E90E0008E90E000854
:1000B000E90E0008E90E0008E90E0008E90E000844
:1000C000E90E0008E90E0008E90E0008E90E000834
:1000D000E90E0008E90E0008E90E0008E90E000824
:1000E000E90E0008E90E0008E90E0008E90E000814
:1000F000E90E0008E90E0008E90E0008E90E000804
:10010000E90E0008E90E0008E90E0008E90E0008F3
:10011000E90E0008E90E0008E90E0008E90E0008E3
:10012000E90E0008E90E0008E90E0008E90E0008D3
:10013000E90E0008E90E0008E90E0008E90E0008C3
:10014000E90E0008E90E0008E90E0008E90E0008B3
:10015000E90E0008E90E0008E90E0008E90E0008A3
:10016000E90E0008E90E0008E90E0008E90E000893
:10017000E90E0008E90E0008E90E0008E90E000883
:08018000E90E0008E90E000879
:1001880053B94AB9002908BF00281CBF4FF0FF31F6
:100198004FF0FF3000F00CB8ADF1080C6DE904CE5B
:1001A80000F008F8DDF804E0DDE9022304B0704748
:1001B800704700BF2DE9F04786468C460846089EE2
:1001C800154674461946002B40F0C2808542B2FAA3
:1001D80082F245D94AB1C2F1200300FA02FC2EFA94
:1001E80003F3954043EA0C0C94404FEA154EA8B22D
:1001F800BCFBFEF8230C0EFB18CC08FB00F943EA05
:100208000C43994528D9EB1808F1FF3704D29945D2
:1002180002D9A8F102072B44A3EB0903A4B2B3FB4C
:10022800FEFC0EFB1C330CFB00F044EA0344A04226
:1002380014D92C190CF1FF3304D2A04202D9ACF125
:1002480002032C44241A43EA07401EB1D440002379
:1002580034607360BDE8F0874746DDE76346F1E741
:1002680092BB431B01214FEA154EAFB2B3FBFEFC14
:10027800200C0EFB1C330CFB07F840EA034398459F
:1002880062D9EB180CF1FF3004D2984502D9ACF1D1
:1002980002002B44A3EB0803A4B2B3FBFEFC0EFB45
:1002A8001C330CFB07F744EA0344A7424ED92C1928
:1002B8000CF1FF3304D2A74202D9ACF102032C445B
:1002C800E41B43EA0040C0E7C2F1200320FA03F12F
:1002D800954090402EFA03F303434FEA154EAFB210
:1002E800B1FBFEFC0EFB1C10190C0CFB07F841EAD5
:1002F8000041884504FA02F422D969180CF1FF304C
:1003080004D2884502D9ACF102002944A1EB0801C6
:100318009BB2B1FBFEFC0EFB1C110CFB07F743EA7A
:1003280001439F420ED9EB180CF1FF3104D29F42D2
:1003380002D9ACF102012B44DB1B41EA004192E7F0
:100348006046E3E76146F7E76046A3E76346B7E739
:10035800834206D916B9002108467BE7C6E900E0C2
:10036800F9E7B3FA83F78FB9834201D3724508D806
:10037800BEEB020460EB030301209C461EB900217A
:1003880068E73846FAE7C6E9004CF8E7C7F1200CF9
:10039800BB4022FA0CF41C432EFA0CF120FA0CF3A1
:1003A800B84001434FEA14490EFA07F5B3FBF9F8D0
:1003B8001FFA84FE09FB18300B0C08FB0EFA43EAFF
:1003C80000439A4502FA07F240D9E31808F1FF30D2
:1003D80004D29A4502D9A8F102002344A3EB0A03E8
:1003E80089B2B3FBF9F809FB183308FB0EFE41EAA2
:1003F80003418E452CD9611808F1FF3304D28E458C
:1004080002D9A8F10203214443EA0040A0FB029864
:10041800A1EB0E014145CE46434602D306D14D45D8
:1004280004D2B9EB020E68EB04030138002EA6D003
:10043800B5EB0E0261EB030101FA0CFC22FA07F39B
:100448004CEA0303F940C6E9003198E74046C5E79E
:100458004346D9E72DE9F0411F4E204FBFF35B8F8C
:100468003468BFF35B8FCCB11D4C00254FF00108F9
:100478002068217903691B6808FA01F11942836829
:1004880005F101050CBFDB681B699847042D04F1D1
:100498000804EDD1322002F0B1FDDFE7104D4FF036
:1004A8000108BFF35B8F3368BFF35B8F002BD5D197
:1004B8002979286808FA01F183685B699847214619
:1004C800384602F0EDFA0134FA2002F097FD042CC8
:1004D80005F10805E5D1C1E7100300202A4200080C
:1004E800504000082DE9F3471A4E1B4FD6F81080EC
:1004F8004FF0FF3A5546B36816485B6801A998471C
:10050800041E11D016DA4FF00009A54201D1CA45E0
:1005180005D012484A46214602F0C2FA2546142060
:1005280002F06CFDCA46E6E7D8F80030019C5C4052
:1005380004F00104B4F1000918BF4FF00109BFF33A
:100548005B8F57E8003F47E80092002AF9D1BFF3D4
:100558005B8FDAE7143D00081003002039420008D9
:10056800F0B5354D89B00024286803F0A5F920B905
:100578003248214602F094FA0AE04FF4B0112846B6
:1005880002F01DFD021E06DA2D48214602F088FA07
:10059800002009B0F0BD0134042C05F10805E3D1B1
:1005A800284C204603F088F918B9274802F08AFA3F
:1005B800EEE72649264802F002FD011E01DA254829
:1005C800D8E70023216824481A4602F069FABFF3E5
:1005D8005B8F224B002453E8002F43E80041002999
:1005E800F9D1BFF35B8F002600270525CDE9066703
:1005F800CDE90245CDE90044194B1A4904944FF45A
:100608008062194801F0D8FD184B1949194800941F
:10061800CDE90667CDE90354CDE901444FF4806282
:1006280001F0CAFD144802F04DFA002142F21070A0
:1006380003F0A5F9F9E700BF50400008534200084D
:1006480070420008143D0008944200082000010090
:1006580048400008B1420008D642000810030020B4
:10066800ED04000800090020E00000205D040008F7
:10067800C0040020600000201F430008014B1B68D5
:10068800184700BF00000020014B1860704700BFEA
:100698000000002030B585B004460D461022002128
:1006A800684603F03FFA02238DF802302A46044BCD
:1006B80001932146684602F025FA05B030BD00BF17
:1006C8008506000880B505460E461746984601F08F
:1006D80081FF034603F02EFADFF81890044649F824
:1006E8000030424630463946A84754F8090000F021
:1006F800EDFA00BF08000000034A536823F0020324
:1007080053600020704700BF002004E0084B1A68BF
:1007180042F480721A601A6842F400721A601A6809
:1007280042F480621A60034B034A1A60704700BFA4
:10073800003C0240240000200024F400014B036028
:1007480000207047704000080648074A08B5121A8A
:10075800002102F0D1FC0548054A0021121A02F0D6
:10076800CBFC08BD60000020A004002000000010A1
:10077800000000100A480B4A0B4908B5121A02F08B
:10078800BDFC0A480A4A0B49121A02F0B7FC0A488B
:100798000A4A0B49BDE80840121A02F0AFBC00BF74
:1007A8000000002060000020AC4800080000002085
:1007B80000000020AC4800080000001000000010F5
:1007C8000C49000838B505460C4699B1D1E9012312
:1007D8000F48096802F082FCD4E90423E1680D4857
:1007E80002F07CFCE1690C4802F078FCA1690B4836
:1007F80002F074FC012D05D1EFF30581084810398A
:1008080002F06CFC21462846BDE8384001F05ABB8E
:100818005843000888430008B8430008C843000844
:10082800F743000830BFFFF7FDBF00BF2DE9F041D7
:100838000B4EDFF8308006EB0807CC1B0546324626
:100848000949204603F060F9A01942460021083CF6
:1008580003F068F92C6707F10800BDE8F08100BFD4
:10086800000000000400000040400008054B5A69E1
:100878009B689A421FBF044A536843F080535360F1
:10088800704700BF7004002000ED00E02DE9F84338
:10089800324D804632488946174602F01FFCAB6A43
:1008A800DE0622D52F4802F019FC1124AB6A1D0779
:1008B80003D52D4802F012FC1224284DAB6A980784
:1008C80015D52A4802F00AFC6E6BAB6A190642D5A8
:1008D8002748314602F002FCB9F1000F03D0AB6A99
:1008E80023F08003AB62132403E01024DEE76FF0EB
:1008F80015061A4DAB6ADA0703D51E4802F0EEFB5F
:100908001424AB6A9B0603D51B4802F0E7FB1524A9
:10091800124B9A6AD50602D49A6A90070AD55B6880
:10092800190507D54146304600F094FA10B180F316
:1009380009880224094B9A6A920642BF5A6A22F42D
:1009480000525A629A6A42F0FF029A6200233B7090
:100958002046BDE8F8836FF01506C4E700ED00E017
:100968000B44000822440008564400086A44000862
:10097800834400089A440008BA44000810B51D4C86
:100988001D4802F0ABFBA36A990130D51B4802F061
:10099800A5FB1E20A36ADA0103D5194802F09EFBC5
:1009A8001F20144CA36A1B0303D5164802F096FBBC
:1009B8002120A36A590303D5134802F08FFB222094
:1009C8000C4CA36A9A0303D5104802F087FB232036
:1009D800A36ADB0303D50E4802F080FB2420054AF6
:1009E800936A6FEA03436FEA1343936210BD1D20B5
:1009F800D0E700BF00ED00E0EA4400080345000826
:100A08001745000832450008514500087745000899
:100A18009245000870B5244C064624480D4602F05D
:100A28005DFBA36AD90435D5214802F057FB17208E
:100A3800A36A1A0503D51F4802F050FB18201A4C68
:100A4800A36A9B050FD51C4802F048FBA16BA36A5B
:100A5800180407D5194802F041FB1EB1A36A23F414
:100A68000043A3621920104CA36A590503D5144802
:100A780002F034FB1A20A36ADA050DD5114802F0FA
:100A88002DFB1B20084A936A43F47F43936200239B
:100A98002B7070BD1620CBE7A36A9B04F2D50A48D9
:100AA80002F01CFB1C20EDE700ED00E0BE4500084D
:100AB800D545000856440008E745000801460008E7
:100AC8001746000833460008BA4400082DE9F041EB
:100AD8005B4B5F688AB00446C7F30806002585F3B8
:100AE8001188BFF36F8F02F07F43B3F17F4F06D1B8
:100AF80002F00C03082B13D1524802F0EFFA00253C
:100B08002C464FF00008F31E8DF80780092B00F2E1
:100B18008680DFE803F00A7A7E768484848484827F
:100B280010074CBF0C460125EBE74748444E02F03E
:100B3800D5FA8DF80780F36A9A0704D5434802F07E
:100B4800CDFA002330E0F36A002B01DA4048F6E7DB
:100B5800F36A5B00F5D53F4802F0C0FA7369A269F1
:100B680043F480737361BFF34F8FBFF36F8F736963
:100B780032F8022C23F480737361BFF34F8FBFF3F5
:100B88006F8F4DF602739A4209D0B36ADBB253B342
:100B98000DF1070201212046FFF778FE33E02168B6
:100BA8002D4802F09BFA23689DF80720C2B902AECF
:100BB80004F1200720686168324603C20834BC4249
:100BC8001646F7D1099AB5B3C2F3080121B96FEAFD
:100BD80052226FEA4222099202A91846FFF7F2FD53
:100BE8000AB0BDE8F081B36A13F47F4F05D00DF168
:100BF80007010120FFF70EFF05E0B36AB3F5803F58
:100C08009FD3FFF7BBFE0346CEE70DF10702002195
:100C1800C1E70DF107010020ECE710488FE7104B02
:100C28001049114817F4F87FA6F1100218BF1946A9
:100C380002F054FA85E722F4FF7222F00102CAE7B3
:100C480000ED00E07A460008A6460008BE46000807
:100C5800E0460008EF4600080F4700082C47000848
:100C6800614600084C46000851470008044B5A6981
:100C780042F010025A615A6922F008025A6170471C
:100C880000ED00E0EFF30880EFF3098101B572464B
:100C9800FFF71CFF01BD00BF0A4880F30888102039
:100CA80080F3118808484FF40461401880F30988DC
:100CB800EFF314800221084380F31488BFF36F8F89
:100CC80000F090F8001B0020400D0020084B9B68A6
:100CD80083420BD1EFF3058343B1064B5A6842F0C8
:100CE80080525A605A6A22F400425A6201F078BC73
:100CF8007004002000ED00E014498A684FF03000CD
:100D08001044EFF3098C80E8F01F102080F312885C
:100D1800BFF36F8F0E4F4FF000664A698A603E60DE
:100D2800106F0C4C2060506F0023536780F31188BC
:100D380004B5104600F0F2F8BDE8044002F13000B6
:100D480090E8F01F8CF309887047000070040020B9
:100D580004ED00E0140300201EF0040F0CBFEFF3B5
:100D68000880EFF30980816911F8021C0229FFD07D
:100D780001B5724602F0C4F901BD00BF40B20028B7
:100D880007DB044A4109012300F01F00834042F8B1
:100D98002130704700E100E040B20028A8BF00F110
:100DA800604001F10101B8BF064B4FEA0111ACBF29
:100DB80000F5614000F00F00C9B2B4BF195480F8C3
:100DC8000013704714ED00E0044B054A23F07F033D
:100DD8009360BFF34F8FBFF36F8F70470000000819
:100DE80000ED00E008B5FFF7EFFF0B4AD2F88830B6
:100DF80023F47003C2F88830EFF3148323F004035C
:100E080083F31488BFF36F8FFFF79EFCFFF7B2FCE4
:100E180000F05AF801F01EF900ED00E042F8203C1D
:100E2800009B42F81C3C0A49019B42F8183C029B73
:100E380042F8143C21F001014FF0807342F8043C61
:100E480042F8081C0023203A02654367704700BF38
:100E5800CD060008094A0346906870B113F1160FD1
:100E6800006E05D0A0F140029A4205D8834203D211
:100E7800814228BF0020704700207047700400207E
:100E880008B515460B4A0C4B9060026F1A600E4667
:100E980000F044F82C4686F309880020034B984755
:100EA8002046002100220023014C20472D31000854
:100EB800CD0600087004002014030020014B102206
:100EC8001A61704700ED00E0044800231021C218A1
:100ED8000133522B82F80013F9D1704700E100E08A
:100EE80008B5EFF30583064A103B02EBC30152F83D
:100EF800330049688847BDE80840FFF7B7BC00BF22
:100F08004C3D0008024B034A0348012100F076B823
:100F1800000002200000002070400008026E054B0F
:100F2800403A1A60044A4021C3E9011218460121D7
:100F380000F06EB81803002000000B15084AC2F82C
:100F480098000B6823F01F03034343F01003C2F813
:100F58009C308B6843F00103C2F8A030704700BF93
:100F680000ED00E02DE9F043DFF8608085B00E4623
:100F78001F4604464FF00009B14523DA6068D8B12E
:100F88003FB1411E08421BD11F2819D923681942B5
:100F980016D12368019302F0D9F8A3680343039399
:100FA800D8F89050C5F30725D0B2013DA84207D81C
:100FB80001A9FFF7C3FF421C09F101090C34DBE763
:100FC8006FF01502104605B0BDE8F08300ED00E0B3
:100FD800044B0522C3F89420BFF34F8FBFF36F8FE4
:100FE800704700BF00ED00E0BFF35F8F024B0022A7
:100FF800C3F89420704700BF00ED00E010B5034C23
:1010080001232278FFF7AEFF207010BD9C0400205A
:1010180008B50B4A00231278FFF7A4FF10F1160F4A
:1010280007D0084A0021D2F89030C3F3072398422A
:1010380000DB08BDC2F89800C2F8A0100130F2E742
:101048009C04002000ED00E02DE9F0435B4B5C4C74
:10105800D3F890302568C3F307239D4285B000F28A
:10106800A980FFF7C1FF00200C2685421BD1554CF3
:10107800554F25706846FFF761FBDFF84081DFF8C0
:101088004C9106460025AE4214D123784B490020E6
:10109800D1F89020C2F307229342C0F28580FFF76F
:1010A80097FF002045E0616806FB0011FFF746FF47
:1010B8000130DAE7009800EB05114FEA051CCB6810
:1010C8003B40B3F5000F4DD00AD8B3F5001F33D01D
:1010D800B3F5800F3BD0B3F5801F13D00135D2E7AD
:1010E800B3F1007F47D0B3F1805F4DD0B3F1807F7B
:1010F800F4D150F80C3088684A6802F027F840F0BC
:10110800887009E050F80C3088684A6802F01EF8C8
:1011180040F0885040F43020CDE901230390D8F8FE
:1011280090302078C3F30723013B984235D96FF0FC
:10113800150005B0BDE8F08350F80C3088684A689F
:1011480002F004F840F0885040F40020E4E750F83A
:101158000C3088684A6801F0F9FF40F0C06040F43C
:101168000030D9E750F80C3088684A6801F0EEFF83
:1011780040F08270D0E750F80C3088684A6801F077
:10118800E5FF40F48020C7E750F80C3088684A68CB
:1011980001F0DCFF40EA0900BEE701A9FFF7CEFE37
:1011A80023780133237099E7C1F89830C1F8A0007B
:1011B80001336DE74FF0FF30BBE700BF00ED00E003
:1011C8007C4000089C0400200000F0FF0000021191
:1011D80008B5024B1B689847002008BD240300206F
:1011E800034B044A1860937843F0020393707047E6
:1011F800240300200400002008B50649064821F011
:101208000701C1F1005202F5003201F028FF002069
:1012180008BD00BF471B00202803002013B50C4C55
:10122800204602F049FB68B10A4A92E803006B467F
:1012380083E80300A26812683AB11946204690472D
:1012480002B010BD6FF01200FAE76FF05700F7E731
:10125800E03B0008404000081F2809D8012303FA92
:1012680000F0044B5B6998430CBF012000207047D5
:1012780000207047003C014000F01F021F284FF07B
:10128800010303FA02F39DBF024A002053616FF085
:1012980015007047003C0140044B184400230133FB
:1012A800994200F8012BFADC704700BF3400002097
:1012B8002DE9F041104F054600264FF001086B78E4
:1012C800F4B2A34201D8BDE8F0812B781C44204633
:1012D800FFF7C2FF68B12046FFF7CEFF57F834305A
:1012E8003BB107EBC40204F01F04516808FA04F08C
:1012F80098470136E3E700BF34030020034660B196
:10130800B0FA80F2C2F11F02D2B205498856054AE6
:1013180011680B431360FFF731BDFF22F5E700BFEB
:1013280034000020003C0140024A136823EA00030D
:1013380013607047003C0140032921D8DFE801F021
:10134800020C10190F4B9A6822EA00029A60DA68B8
:1013580022EA0002DA6070470A4B9A680243F5E70E
:10136800084BDA680243DA609A6822EA00029A6057
:101378007047044B9A6802439A60DA681043D86051
:10138800704700BF003C014030B5B0B1B0FA80F3FF
:10139800C3F11F03DBB20B4850F833408C4204D131
:1013A80000EBC3056D68954205D044B940F8331089
:1013B80000EBC3004260002030BDFF23EBE76FF075
:1013C8000F00F9E73403002060B1B0FA80F3C3F1ED
:1013D8001F03DBB2044A002142F8331002EBC302B8
:1013E80051607047FF23F5E73403002000F0030243
:1013F800043292000F23934043EA9000C3B20233B1
:10140800054A52F82320030C02EA104093FAA3F38A
:10141800B3FA83F3D84070470038014038B52C4BF5
:1014280018680B88C3F30B030D2B14460D464FEABF
:10143800900215D8EBB1013B0C2B1AD8DFE803F06A
:10144800093C073C382028191932193A09004FF489
:10145800FA4020602B68B3F5805F31D2002038BD98
:10146800402B2BD008D823F00402302AF1D0382B97
:10147800EFD06FF08500F2E7442B07D0A82BF7E7F1
:1014880000F0CCF84FF4A873C00858434008E0E7D0
:1014980000F0C4F84FF4A873C00858430723B0FB02
:1014A800F3F0D6E700F0BAF840F20F13C008ECE703
:1014B8000848CEE75000CCE70020CAE71046C8E746
:1014C800C3F313330133B0FBF3F02060C6E700BF6A
:1014D8002400002000127A00F8B54B4F4B4C00F066
:1014E800DBF8384601F03FFF00F04CFCA368484A9F
:1014F800C3F303131578D35C47FA05F520FA03F60E
:10150800AE4202D2284600F06BFC236823F4802305
:101518002360236843F4803323603C4B1A689103AB
:10152800FCD55A6F42F001025A675A6F9207FCD5F0
:101538009A6802F00C02082A17D11A68940707D48F
:101548001A6842F001021A60304A13689807FCD5FD
:101558002E4B9A6822F003029A609A6812F00C0FD8
:10156800FBD19A6822F0F0029A60284C236823F095
:101578008073236023689901FCD4264AD2F8043882
:1015880023F44033C2F80438D2F8043823F07063E7
:1015980043F0E063C2F8043800F044F8236843F0ED
:1015A80080732360194C23689A01FCD500F056F823
:1015B800236843F08063236023681B01FCD5A3687C
:1015C80023F0F003A360A36823F0030343F00203AE
:1015D800A3600E4CA36803F00C03082BFAD1AE42AB
:1015E80002D3284600F0FCFB0B4B1F60A36823F4D2
:1015F800E05343F4A053A360A36823F4604343F487
:101608000043A3600020F8BD007A030A00380240B6
:101618004C48000800300240240000200048704771
:1016280000127A00084B09495A681140084A0A43CF
:101638005A605A68074922F440325A605A68114081
:10164800054A0A435A607047003802400080BFFFCD
:10165800085440000080BFF0085440070B4A0C496A
:10166800D2F8043843F48003C2F80438D2F80438B6
:1016780023F03F0343F00803C2F80438D2F8843853
:101688001940044B0B43C2F88438704700300240BD
:101698003F80FF8FC0430020064B1A6C42F08052F7
:1016A8001A641B6C82B003F080530193019B02B053
:1016B800704700BF0038024008B5074802F0FCF840
:1016C80038B10648FFF78CFD0448FEF7DDFF00201F
:1016D80008BD6FF01200FBE7303D0008E91600086E
:1016E8000A2838B5074D044604D1AB680D215B685C
:1016F80028469847AB6803485B68E1B2984720469C
:1017080038BD00BF303D00082DE9F843D0F804800B
:10171800D0F81090D8F8080017460D461E4601F07C
:1017280073FDB7F5001F044616D12846D8F80840BF
:10173800FFF75CFE84420CD1294601F065FD0446A2
:10174800FFF7F2FD2046FFF73FFE00212046FFF796
:10175800F3FD0020BDE8F883B7F5800F20D0B6F17F
:10176800806F19D0B6F1C06F18D0B6F1007F1AD1CA
:10177800022610494A462046FFF706FEB0B9D8F8B7
:101788000810284601F045FD20463146FFF7D4FDF4
:101798002046FFF7B3FDDCE70126EAE70326E8E782
:1017A8006FF08500D6E76FF01500D3E76FF00F00F4
:1017B800D0E700BFE335000838B503690446586030
:1017C8000A4D284602F078F860B1AB6861681B687A
:1017D8000C3123B12846984700EAE07038BD6FF015
:1017E8005700F9E76FF01200F8E700BFE03B000888
:1017F8002DE9F0471E4F044600EBC1060025B44210
:1018080001D1002014E02068C30600F01F0911D49C
:10181800656845F02005C0F3481AC0F3442019282C
:1018280023D857F82080B8F1000F0DD16FF01200BF
:10183800BDE8F087B9F1100F04D0B9F1110FEAD162
:101848006568E8E73025E6E7404602F035F8002805
:10185800ECD04B462A460AF00F01404601F0D3FE71
:10186800002804F10804CADAE2E76FF01500DFE7A0
:1018780054410008F8B50C46036941685D6823794E
:10188800012B35D09A1E56425641B6026279022A79
:101898009CBF374F37F812C0A27988BF4FF4005C5D
:1018A800042A28D0003B18BF01231B03E279012A30
:1018B8000A680CBF4FF440770027A542D1681DD1B4
:1018C80021F4B05131430B43D360136923F44053DF
:1018D80043EA0C03136143681A68536923F440739D
:1018E8003B435361296801F029FF00EAE070F8BD25
:1018F8004FF4C066CAE74FF48053D7E701F4C061DC
:101908008E421FBFD16821F4C0613143D160426863
:1019180011680A6902F4405294451FBF0A6922F40B
:10192800405242EA0C020A6142681168CA6802F42D
:10193800805293421FBFCA6822F480521343CB607F
:1019480043681A68536903F440739F421FBF536981
:1019580023F440733B43536121682B68994205D0B7
:1019680001F0ECFE0028C2DB23682B600020BEE7F4
:1019780024420008F8B543681D6803695F680B795D
:101988000C46012B4979A67939D102294ED9042E62
:1019980049D04FF4C0624FF480534FF0030C8C458C
:1019A80041D1002B7BD0002A14BF03220422B2426B
:1019B80039D1E37983B1012B35D13B4B9D420BD013
:1019C800A3F54C439D4207D003F580639D4203D0A5
:1019D80003F54C439D4226D1EB6823F40053EB609A
:1019E8002146FFF747FF00281DDBEB6843F400534F
:1019F800EB6094E8030087E80300002015E0022B61
:101A080006D102291FD9042E0DD04FF48062C2E7F7
:101A180002290A461FD9042E02D123B90022BAE7A7
:101A280013BB0329C3D06FF08500F8BD1F4A042EED
:101A380032F811C0F7D04FF4C062033B012BF2D942
:101A48004FF4805319E0194A042E32F811C0EAD035
:101A58004FF48062F1E7154A042E32F811C009D11B
:101A6800002BE0D11A46EBE7033B012BDBD9D5E786
:101A78000022E2E7002BFBD11A46BCF5805F08D0B4
:101A8800BCF5405F08D0BCF1000F86D14FF0010CC7
:101A980085E74FF0000C82E74FF0020C7FE7002A41
:101AA80014BF0222032282E70010014024420008EA
:101AB800F7B50669446805462B48306001F0FCFE1E
:101AC80018B96FF0120003B0F0BD3068E1688368A0
:101AD8001B68002B42D098470028F4DB206A01AA33
:101AE800002101F0A8FD0028EDDB019B00221979F7
:101AF8001868FFF77DFE0028E5DB6E682B693468FF
:101B08005F68E36823F40053E360706801F0D4FE73
:101B18000028D6D0D6E901018368DB6803B198476D
:101B280004F10C0353E8003F43F00C0304F10C01EB
:101B380041E80032002AF3D139462846FFF79AFED9
:101B480000280EDB337D1BB1636943F00803636132
:101B5800E36843F40053E3600020B4E76FF05700F4
:101B6800B1E76FF01500AEE7E03B000810B54FF0A5
:101B7800E0230F499C691A6908689B690D4902F4BA
:101B8800803234B993B903464AB90A681044C01A76
:101B980010BD002B08BF03460AB9A342F5D90A684D
:101BA80002440A604FF0E0221269EEE70446F3E7C8
:101BB8006C040020680400200A4B102283F82320BC
:101BC800094B44F2A0121A60084B002018604FF02D
:101BD800E02344F29F125A6198611A6942F00702A1
:101BE8001A61704700ED00E06C04002068040020D2
:101BF800684620F007018D4619B5FFF7B7FF114B6E
:101C08001149D3E900420868001942F10002C3E90A
:101C180000020E4A00230B60D2E9004144F2A013EF
:101C2800001BB0FBF3F043431B1941F10001C2E96B
:101C3800003100F0B7FEFEF719FEBDE819408546F1
:101C4800704700BF68010020680400206001002080
:101C58002DE9F041DFF8DC8099B1421C0BD14FF03F
:101C6800E022136923F0010313614FF07F43C8F8A2
:101C78000030BDE8F081D8F80060012807DC0027B3
:101C88000BE0431CD8F80060F7D140F2E53040F291
:101C9800E6339842A8BF1846471EEFF31185102374
:101CA80083F31288BFF36F8FFFF760FF224C4FF06A
:101CB800E0239969D4E90023801843F10003C4E9BB
:101CC80000031E4B00221A601D4B1A68831A2ED47B
:101CD80044F2A01C0CFB073303F583431F33B3FB0B
:101CE800FCF7131A0CFB073340F21A42934238BF31
:101CF8001346144A934228BF13464FF0E022C8F80F
:101D08000030013B90695361002393618142A1EB4C
:101D18000003D4E9001238BF9B195B1842F1000296
:101D2800C4E9003285F31188BFF36F8FA1E740F251
:101D38001A43E2E76C0400206801002068040020D0
:101D4800600100202094FF0038B5EFF311851023BF
:101D580083F31288BFF36F8F084B1C68084B1B680E
:101D6800E41AFFF703FF85F31188BFF36F8F44F27E
:101D7800A0132044B0FBF3F038BD00BF6801002079
:101D88006001002008B513498B6803F00C03042B8D
:101D98001CD0082B1CD14A684B68496813F480038F
:101DA80014BF0D480D48C1F3881118BF002302F075
:101DB8003F02A1FB0001FEF7E3F9064B5B68C3F3A2
:101DC800014301335B00B0FBF3F008BD0248FCE7B8
:101DD8000248FAE70038024000127A000024F400B2
:101DE80000285ED0304A136813F4804338D02F4B54
:101DF800984215D913685B0449D505232C490A680C
:101E080022F007021A430A600A6802F007029342A6
:101E18001CBF0A6802F00702981A18BF0120704711
:101E2800244B984204D91368580436D50423E5E7AF
:101E3800214B984204D91368590430D50323DDE7B0
:101E48001E4B984207D81E4B984213681DD95A0456
:101E58001FD50123D2E713685B041CD50223CDE705
:101E6800126812F48042C9D11249884215D8124921
:101E7800884214D811498842F0D811498842BDD9FE
:101E8800012A134638BF0123B8E70023B6E7052225
:101E9800F6E70122F4E70222F2E70422F0E7032240
:101EA800EEE70120704700BF0070004080D1F008C5
:101EB800003C0240000E2707804A5D050087930317
:101EC80080C3C90138B5EFF31185102383F3128855
:101ED800BFF36F8F064B9C6801F001FD85F31188F5
:101EE800BFF36F8F2046BDE83840FEF7EFBE00BF56
:101EF8007004002038B50A4B53F82040013053F8DD
:101F08002050A54200D838BD606830B1037EDB0799
:101F180001D401F0B9FC0834F3E723689847FAE7DD
:101F28000C42000870B52A4B2A4C2B4D012286B072
:101F380003201A70FFF7DEFF00F0ACFD0420FFF766
:101F4800D9FF2646AE4204F1300410D300F04EFA11
:101F5800204C224EAC4226D300F05CFAFEF700FB80
:101F68001F4A137B23F00103137306B070BD54F8A6
:101F78000C3C059354F8103C049354F8143C039318
:101F880054F8183C029354F81C3C019354F8203C34
:101F9800009354E90A2354E90C0100F0C1F854F8FD
:101FA800303C5E65CDE7D4E90A23B3F1FF3F08BFB3
:101FB800B2F1FF3F05D052EA0301206803D100F0D7
:101FC800E5FA3034C6E73146183000F05BFCF8E734
:101FD8009D040020DC3F0008DC3F00087F39000832
:101FE800F001002070B5002386B00122CDE904235A
:101FF800134E144D01930F22CDE9023212491423D6
:1020080003FB005506EBC01604464FF4C07000FBF6
:1020180004110E4B00954FF4A072304600F080F882
:10202800737B0B4AEE6023F0040373734FF404636D
:1020380004FB033313442C746B6006B070BD00BFFF
:10204800700100207004002080150020ED38000881
:10205800400D0020BFB50020FFF74CFF284B83F34D
:102068000888284C284F636943F40073636100258E
:10207800F02384F82230E57725766576A57684F80E
:102088002050636A43F4E0236362FEF7EFFDFEF736
:1020980015FF4FF0FF33A362E362FEF7D5FFFEF7AB
:1020A80031FF1A481A4C00F0B3F8FEF72FFB012055
:1020B800FFF720FF0220FFF71DFF00F0DFF9154BA7
:1020C80015495C61154B05930123CDE903534FF482
:1020D80080623B46CDE901550095204600F020F886
:1020E800627B064622F004022046627301F017FC68
:1020F8002846FFF777FF3A4631462046FEF7C0FEEE
:102108008015002000ED00E02D1F0008700200205F
:10211800F001002070040020001700205C4800082F
:102128002DE9F043073285B022F007020E461F461C
:102138001099017300F158037F32C0E91633044641
:10214800002322F03F020421836041733F2A0F9845
:10215800A073C4E90633E37306F14009A2F140080D
:1021680005D883F31188BFF36F8F084602DFB518CF
:1021780029462046FEF75AFB07300E9B20F0070041
:10218800A066C4E9189802930D9B01932D1A0C9B25
:1021980000932A463B4631462046FEF73FFE002381
:1021A8006365044B9B6803B1DB6EE366284605B0A4
:1021B800BDE8F08370040020F0B587B000250595D0
:1021C800109D04950F9D03950E9D0295DDE91276ED
:1021D8000D9D01950C9D00950446FFF7A1FFB6F1F2
:1021E800FF3F08BFB7F1FF3F05D056EA070305D107
:1021F800204600F0CBF9204607B0F0BD3A463346FA
:1022080004F11800014900F03DFBF4E77F390008AC
:1022180040F2011383810023C0E91833C366014BE0
:102228009860704770040020094A93686FF00A01AB
:102238009967084958674B6843F080534B600023FF
:1022480083F31188BFF36F8F9368986F704700BF4F
:102258007004002000ED00E070B590F90D20437B7C
:10226800002A36DBD90634D11B4C63F07F032246A3
:10227800437352F8183FE169934207D1C0E900213E
:102288000860E06111E09942F8D01B68002BF5D096
:1022980090F90E5093F90E60B542F4D0AE42F2DDDB
:1022A8005968C0E9003108605860A569954200D0B6
:1022B80005B9E568A3685A7BD20604D1DA897F2A72
:1022C80001D9AA6932B1AB4202D0284600F056FAC9
:1022D800656170BD6361FCE77004002038B590F952
:1022E8000D20437B002A014604DA03F07F03437381
:1022F80001F003FB0D4D2A46AB6852F8184F944283
:1023080000D004B9EC688B4207D05A7BD20604D1BE
:10231800DA897F2A01D9A2692AB1A34202D02046CC
:1023280000F02CFA23466B6138BD00BF7004002012
:1023380038B5194CA168E0690B68814214BF1A4688
:10234800002249680B605960A368E1692AB9134AF9
:10235800C3E900210B60E3610CE093F90E0092F9E8
:102368000E50A84214D0854212DD5168C3E90021FD
:102378000B605360A569094B9D4200D005B9E5681B
:10238800A3689D4202D0284600F0F8F9656138BD7F
:102398009142DCD01268D9E770040020880400203C
:1023A80049B9EFF3058030B9054B5A699B689A42E1
:1023B80001D0FFF739BF81F31188BFF36F8F7047E2
:1023C80070040020034648B9EFF3058232B9064A83
:1023D80051699268914201D0FFF726BF83F31188B3
:1023E800BFF36F8F704700BF70040020EFF31181B7
:1023F800102383F31288BFF36F8F054B9A68D37B42
:10240800013BD37381F31188BFF36F8F704700BF0F
:102418007004002070B5EFF31186102383F312883F
:10242800BFF36F8F144DAB68DA7B0132DA732A463B
:1024380052F8184F944200D004B9EC685A7BD2067F
:1024480004D1DA897F2A01D9A2692AB1A34202D02C
:10245800204600F093F923466B6186F31188BFF399
:102468006F8FEFF31180102383F31288BFF36F8F00
:10247800BDE87040FFF7A6BF70040020024B03F1CF
:102488001802C3E9062270477004002070B5EFF304
:102498001186102383F31288BFF36F8F1B4CA1683A
:1024A800E0690B68814214BF1A46002249680B6034
:1024B8005960A368E1692AB9154AC3E900210B608C
:1024C800E3610CE093F90E0092F90E50A84218D07F
:1024D800854216DD5168C3E900210B605360A56988
:1024E8000B4B9D4200D005B9E568A3689D4202D018
:1024F800284600F043F965613046BDE87040FFF7B3
:1025080093BE8A42D8D01268D5E700BF7004002075
:1025180088040020F8B550EA010306460C4603D1AA
:10252800FFF7B4FF0020F8BDEFF31187102383F302
:102538001288BFF36F8F124D124BA8681860FFF70F
:10254800CDFEA868104923463246183000F09AF9A3
:10255800AA68537B43F00403537304463846FFF7D5
:1025680063FEAB68D3E90A23B3F1004F08BF002A22
:10257800D8D101F062FA201A20EAE070D3E700BF50
:1025880070040020900400207F39000838B5044604
:10259800EFF31185102383F31288BFF36F8F437B0A
:1025A8005B070FD5183001F020FA637B23F0040392
:1025B80020466373FFF750FE29460548BDE83840BA
:1025C800FFF7EEBE85F31188BFF36F8F38BD00BFEC
:1025D8009E040020014B9868704700BF70040020DB
:1025E8002DE9F8430446077BEFF31185102383F3A5
:1025F8001288BFF36F8F437B190705D585F31188C0
:10260800BFF36F8FBDE8F883D90943F008025DD1A5
:102618004273A36813B1204601F077F904F118005A
:1026280001F0E3F9A66D04F15808B04511D04FF058
:10263800000976B1304601F068F906F1180001F09A
:10264800D4F9C6F878903046FFF706FEA66DB04577
:10265800EFD1DFF8C080D8F808309C423ED1EFF3C4
:102668000589B9F1000918BF4FF00109D8F81860B9
:10267800294A964200D00EB9D8F80C60B34202D06D
:10268800304600F07BF82046C8F8146000F047FD9B
:10269800B9F1000F02D02148FFF7BAFDD8F8083089
:1026A8009C4231D1EFF3058373BB227BD20718D448
:1026B8002846FFF7B9FDFB07A4D5002383F311884B
:1026C800BFF36F8F0423184602DF9BE703F07F03F5
:1026D80043F00803437301F010F99AE74FF000093B
:1026E800C4E785F31188BFF36F8F83F31188BFF3B5
:1026F8006F8F0423184602DFEFF31180102383F352
:102708001288BFF36F8FD4E785F31188BFF36F8FFB
:10271800D1E700BF70040020880400207002002068
:10272800044BC01A044BC0105843044B01221A54DE
:10273800704700BFF0020020ABAAAAAA9E0400209E
:10274800C3897F2B12D80A4B1B6863B1094B90F9D8
:102758000E201B689A4209DB437BDB0606D1064B39
:10276800C31A18BF012303F0010070470023FAE7DA
:1027780028000020940400207001002070B50E4B42
:102788000E4C1E7C06EB460304EBC30405462046AC
:1027980001F02BF90A4B002228469A55FFF7D0FF83
:1027A80048B1084B08491A68013A2046D317BDE8D2
:1027B800704000F067B870BD70040020F00200207F
:1027C8009E040020280000202927000838B5EFF3D0
:1027D8001185102383F31288BFF36F8F0F4B104AB4
:1027E8009C681068A04206D1FFF7C8FF85F31188DE
:1027F800BFF36F8F38BD00211B7C1160094AD35C81
:10280800002BF3D02046FFF79BFF0028EED0637B18
:10281800DB0601D1FFF78CFD2046E5E770040020B8
:10282800900400209E040020024B1868984208BFBC
:10283800002070472C000020034B1B680BB9FFF7E2
:1028480083BA0020704700BF9804002030B570B1EB
:102858000B4B5B6898420AD0036843B1D3E9042163
:10286800D0E90445121941EB0501C3E90421D0E977
:10287800003213605A600023C0E9003330BD00BF46
:102888002C000020B3F1FF3F08BFB2F1FF3F2DE954
:10289800F84F0446994615461F467AD08160EFF3F3
:1028A8001188102383F31288BFF36F8FB9F1000FDB
:1028B800DFF8E4A020DBFFF7BFFFDAE900270135E6
:1028C80049F100092D1849EBE073C4E90453AD1828
:1028D800064643EB07074FF00109FFF7A5FFDFF8AE
:1028E800BCE0DEF804A00346EBB9C4E900EACAF884
:1028F8000040CEF8044028E0DAE900126FF0010346
:102908005B1A4FF0FF3161EB02025B1B62EB0902BD
:10291800012B72F10001BCBF01230022C0E904327F
:102928004FF00009D9E7D3E9041CD4E904208A420E
:1029380070EB0C0B24DA891A5A686CEB0000C3E9B7
:102948000410C4E9003214605C60FFF76DFF844234
:102958000ED1134B1B685BB9B9F1000F02D1FFF719
:102968006BFF0646304601F029F80021FFF770F9A1
:1029780088F31188BFF36F8F28463946BDE8F88F72
:10298800521A60EB0C009A45C4E90420ADD01B68CC
:10299800AAE700252F46EFE7080300202C000020B7
:1029A800980400202DE9F047EFF31185102383F3F5
:1029B8001288BFF36F8FDFF8A490DFF8A480C9F8FE
:1029C8000000FFF731FF00260027D9F80030D8E9CA
:1029D80000ECD91750B1D0E90442A34271EB020AC6
:1029E8001CDAE41A62EB0102C0E9044213EB0E039D
:1029F8004FF000044CEB01012046C8E90031C9F84A
:102A0800004000F0DBFF2146FFF722F985F311882B
:102A1800BFF36F8FBDE8F047FFF7D8BE14EB0E0287
:102A28004CEBE473C0E90467C8E90023FFF70EFF25
:102A380085F31188BFF36F8F83689847EFF311858B
:102A4800102383F31288BFF36F8FD9F800301B1B54
:102A5800C9F80030FFF7E8FEB7E700BF9804002088
:102A68000803002010B5EFF31184102383F31288B4
:102A7800BFF36F8FFFF7E0FE054A0346D2E9000176
:102A8800181841EBE37184F31188BFF36F8F10BD01
:102A980008030020014800F021BB00BF614800087E
:102AA8000FB407B5064B04AA186852F8041B019224
:102AB80000F028F803B05DF804EB04B0704700BFDD
:102AC8009C400008F8B50E4B1D68AB789B0706467E
:102AD80012D56F6816F8014B29462CB90A20B84759
:102AE800002805DB204609E02046B8470028F1DA2F
:102AF800AB7843F00403AB704FF0FF30F8BD00BF74
:102B08009C4000082DE9F04F8DB04368029383780C
:102B180015469A07804640F10D8100240E78002E54
:102B280000F00A81252E0BD04B1C03930134029B25
:102B38004146304698470028C0F2F6800399EDE7F1
:102B48004E788B1C252E0393F0D00027B946BB4640
:102B5800BBF11F0F38D8A6F12003102B0AD8DFE8E5
:102B680003F02A0909300909092109090928092D49
:102B780009091F00A6F13003092B33D92A2E37D1B2
:102B88001BF0400F55F8043B40F08280002BA7BF94
:102B98004BF0200B9946C3F100094BF0280B01E0DC
:102BA8004BF0010B039B13F8016B0393002ECFD15D
:102BB80030E04BF0020B4BF0040BF3E74BF0080B43
:102BC800F0E74BF0100BEDE7BBF17F0F19D8A6F13A
:102BD8003003092BD2D81BF0400F03D00A2101FB88
:102BE8000737DFE70A2101FB09394BF0200BD9E74A
:102BF8002E2E06D11BF0400F40F09E804BF0400B6C
:102C0800D0E76C2E31D02BD8682E36D06A2E3CD027
:102C18004C2E3AD0002F46F02003B8BF2BF04002CC
:102C2800A3F16501BCBF1FFA82FB0027022901D965
:102C3800612B2FD1073525F00705DFF8ACA2083541
:102C480007271BF0080F66D00AEB070B56465E45B0
:102C580063D1A4EB0A0A06EB0A02A9EB07096FE1A4
:102C6800742E9FD07A2E9DD0D4E71BF0800F18BF0A
:102C78004BF4007B4BF0800B94E71BF4807F18BF6C
:102C88004BF4007B4BF4807B8CE74BF4207B89E78B
:102C98001F4687E7A6F16301122900F2F080DFE8FA
:102CA80011F013004F00EE00EE00EE00EE004F00B2
:102CB800EE00EE00EE00EE00EE00FE00E900EE0091
:102CC800EE001B00EE00AF0055F8043B8DF81830FD
:102CD80001270DF1180AB4E755F804AB834BBAF194
:102CE800000F08BF9A461BF0400F14BF39464FF03B
:102CF800FF31504600F0A5FE0746A2E7029B414679
:102D08002020984700280FDB013EB742F6D34C44F9
:102D1800A41BB14698E74E46F7E716F8010B029B4D
:102D280041469847002892DA98F8023043F00403A5
:102D380088F802304FF0FF3420460DB0BDE8F08F20
:102D48001BF0800F34D01BF4007F2CD0073525F002
:102D58000705AA4669685AF8080B2BF010050029E0
:102D6800ADB237DA404261EB410145F480650DF1BF
:102D7800180B0A235A4600F070FEA0EB0B030193D0
:102D88006B0662D5019B25F001019F4289B240F391
:102D9800A180002E00F0998015F0100240F09C8070
:102DA800BB460D4623E0AA465AF8040BC117D4E7E0
:102DB800AA461BF4807F5AF8041B01D10846F5E7A0
:102DC8001BF4007F15BF48B208B241F3C01141F3AC
:102DD800C031C2E750EA0103C9D11BF0400FC6D089
:102DE800002FC4D12BF0110295B2BB46019740F2D7
:102DF800064115EA01021CBF0BF1010B00222CE071
:102E08002BF010021FFA82FB0A231BF0800C49D01A
:102E18001BF400711DBF073525F00705AA46AA4611
:102E28001ABF5AF8080B69685AF8040B50EA0105EA
:102E380045D12BF016051BF0400FADB242D0002F44
:102E480040D12BF0170295B2019715F0100248D027
:102E5800019B002E42D103F1010B29075AD4EB073D
:102E680006D5D9456FDD0199A9EB0B035F18CB4651
:102E78005B4649E04BF0100B10237826C5E7782B0A
:102E880004D1C6F1780343F01003BEE7029B414624
:102E9800252098470028FFF647AF023447E6082365
:102EA8000026B2E7AA461BF480715AF8040BBDD07D
:102EB8001BF400711ABFC0B2614680B2B6E72BF0AE
:102EC800060295B20DF1180B54E725F01105ADB2C5
:102ED800BB468CE70D46B8E73B460D4603F1020BAF
:102EE800BBE7DDF804B082E7A34800089C48000867
:102EF800CDE904324146029B202098470028FFF67E
:102F080013AF049B059A01339945F1DCA4EB0B013F
:102F1800CC189B460AB3029B4146302098470028AC
:102F2800FFF602AF8EB901342744019B391B994241
:102F380024DC1D465DBB019AA9EB0B0922445546CA
:102F48001446914435E0019F92E7023441463046E9
:102F5800029B98470028E7DAE6E640F206410D4270
:102F6800E2D015F0020F14BF2B20202015F4806F3B
:102F780004F10104414618BF2D20E9E7029B4146B0
:102F880030209847002804F10104CEDACCE606ABDD
:102F9800013D4146585D029B98470028CADAC3E6BE
:102FA800029B414620209847002804F10104FFF6BF
:102FB800BBAEA9EB0403002BF2DCBFE57047F0B40D
:102FC80003460A461979DB8800681343DC028768E0
:102FD800066906D513F4402F03D0DA0748BF83F4F7
:102FE8004023346801258D4023F48012DB074CBF51
:102FF8002C43AC4334603B68F0BC18470A2180FB83
:10300800010100F0BCBC00EBC100408840087047DB
:10301800F8B50346FFF7F7FFB0FA80F0C0F11F00DC
:1030280003EB800CCA00DCF81060171D0C46063252
:103038008DB256B9012101FA00F0D9680143D9606F
:10304800CCF81040DD539D52F8BDF1000431585AB8
:10305800D85303EBC0009E52C5805D52F4E7043A92
:103068002DE9F041CC1D114424F0070421F007019B
:103078000E1BF708B7FA87F2C2F12405AD004FF02E
:1030880000080735C2F12002ED0804604146A76038
:10309800C4F80C80920004F1100000F043FD6B00AE
:1030A80043F00103638004EBC5027B1B5900A4F8BD
:1030B80000805180A21924F83550A2F80280A35349
:1030C80004EBC70329465A8842F001025A80204679
:1030D800BDE8F041FFF79CBF002070470FB407B56B
:1030E80004A951F8040B0191FDF7D4FA03B05DF877
:1030F80004EB04B07047704700F014BD00F004BD45
:1031080001460068FDF75EBB08B5FDF78BFBBDE81F
:103118000840FDF7ABBB00210120FDF753BB6FF062
:103128008500704761B662B680F31188BFF36F8F70
:10313800704772B6002383F31188BFF36F8FBFF314
:103148004F8F30BF62B6BFF36F8F7047202809D901
:10315800B0F1004F08D80138B0FA80F0C0F11F0074
:1031680040007047082070473E20704708B5FEF7BA
:103178002FF8002008BD08B5062201210020FEF71F
:103188008BF8002211460620FDF706FE01210846AD
:103198000722FEF781F8002211460720FDF7FCFD03
:1031A800082201210220FEF777F8002211460820A4
:1031B800FDF7F2FD092201210320FEF76DF8002238
:1031C80011460920FDF7E8FD0A2201210420FEF737
:1031D80063F8002211460A20FDF7DEFD05210846A6
:1031E8001722FEF759F8002211461720FDF7D4FDE3
:1031F800282206210A20FEF74FF80022114628202F
:10320800FDF7CAFD002008BD01F01F01012088401C
:10321800704700F00302043292000F23934043EA00
:10322800900010B5C3B29B0003F1804303F59C33B3
:10323800020C9C6892FAA2F2B2FA82F224EA1040D6
:1032480091400143996010BD0B88C3F30B0303F54C
:103258007D62C2F30B02782A82B014D803F180434E
:1032680003F50E3348681A6802431A600B88C3F3E3
:103278000B0303F1804303F50E3300201B68019311
:10328800019B02B070476FF08500FAE70B88C3F323
:103298000B0303F57D62C2F30B02782A9FBF03F18B
:1032A800804303F50E3349681A689DBF8A4300209E
:1032B8001A606FF0850070470D2809D843F2EA4379
:1032C800C34013F0010F14BF00206FF08500704752
:1032D8006FF08500704738B50888C0F30B00FFF71A
:1032E800EBFF002822DB4868FF281ED082B2C0F31B
:1032F800415502F1804202F50E3201350123AB40FF
:103308001468C0F30440013B834024EA03031360BC
:1033180049688BB203F1804303F50E330A0E18682F
:10332800C1F304418A4002431A60002038BD08886E
:10333800C0F30B0008B500F57D63C3F30B03782BCE
:103348000AD800F1804000F50E304B6802689343BC
:1033580014BF0120022008BDFFF7AEFF002814BFEC
:1033680001200220F7E7704743685B681B690B6020
:103378000020704743685B68586942400A404240F1
:103388005A610020704743685B6800209961704764
:1033980043685B68090499610020704743685B686B
:1033A8005A69514059610020704710B503699868FF
:1033B800F8B1884219D1DC6808689860A14200D148
:1033C800D860002008602AB19A680A60DA689960B3
:1033D80002B9D960002010E0814206D10868206057
:1033E800D8688142EDD1DC60EBE70446006800282C
:1033F800F2D1002AE8D16FF0150010BDF0B544688D
:103408000120676888401E46C2F3801327EA000738
:103418008B403B43636090FAA0F7B7FA87F7D4F87C
:1034280008C04FF0030E7F000EFA07F72CEA070CCE
:1034380090FAA0F7B7FA87F7C2F3C1137F00BB4031
:1034480043EA0C03A36090FAA0F3B3FA83F3E768A6
:103458005B000EFA03F327EA030790FAA0F3B3FA26
:1034680083F302F030055B00C2F341229A403A43ED
:10347800202DE26016D107292BD890FAA0F3226AF2
:103488002BB3B3FA83F39B000F2101FA03F322EA6B
:10349800030290FAA0F3B3FA83F39B0006FA03F34E
:1034A8001343236290FAA0F3B3FA83F3226890FAE5
:1034B800A0F05B000321B0FA80F02D0901FA03F3B4
:1034C800400022EA030385401D432560F0BD2B46DA
:1034D800D9E7030A616A93FAA3F282B1B2FA82F2D7
:1034E80092000F2793FAA3F3B3FA83F307FA02F2D1
:1034F8009B0021EA02029E4016436662D2E72A46F2
:10350800EEE712F4003CF8B505460C4613461DD00C
:10351800960714D550075DD55022D90611D542F427
:10352800007203F4C061B1F5806F42D0B1F5C06F8D
:1035380019D0B1F5007F18D142F0800215E01022B1
:10354800EBE79F06EDD542F48062EAE7D60305D59E
:10355800D00605D4C2F340129202E2E73022E0E737
:103568004FF40072DDE742F4C07213F440372E695D
:1035780008D0306920FA04F1C9075FBF0121A140D2
:1035880001433161BCF1000F06D0180314D56968F6
:1035980001234968A3408B61686800232146FFF72F
:1035A8002DFF27B9336923FA04F2D2070CD400207F
:1035B800F8BD42F48072D8E75903EDD50121A14046
:1035C8002846FFF7E5FEE7E70122A24023EA0203C7
:1035D8003361ECE76FF08500EAE770B50B46896860
:1035E800054611B15E680C6801B970BD8A682A4049
:1035F80002D04B68304698471CB1236821461C46C8
:10360800F2E72346FAE7F8B51F46044640680E4637
:103618001546FFF7F3FE112F07D101212B0501FAFB
:1036280006F104D563685B6899610020F8BD2046FF
:10363800FFF7AEFEF9E730B5036813600579046853
:1036480004EBC504A34202D36FF0010030BD5C79DE
:103658008C4201D00833F0E70020F7E74368C1F354
:103668004B101B6801F01F01C05801238B40034217
:1036780014BF0123002313700020704710B543685E
:10368800C1F34B101A6801F01F01845801238B40C5
:1036980023438350002010BD10B54368C1F34B1479
:1036A800186801F01F01235801228A4023EA020307
:1036B8002350002010BD38B504460D46FFF7DEFF45
:1036C80029462046FFF7E8FF002038BD82B003688E
:1036D8000193019B43680193019B02B0704708B5B1
:1036E8004368186802680368D9070368C2F3C00210
:1036F80048BF42F002029B07036848BF42F0040239
:103708005907036848BF42F02002DB0542BF6FF447
:10371800807342F008020360D10701D5FFF7D6FF96
:10372800930701D5FFF7D2FF510701D5FFF7CEFF69
:10373800930601D5FFF7CAFF104608BD37B54368A1
:1037480002691C680D4619B96FF0150003B030BD49
:103758001068D9688368DB6803B301AA9847002812
:10376800F4DBE368019923F400431920E360AA001D
:10377800AB0FA1FB0001FCF703FD6422B0FBF2F1E3
:1037880002FB11031B013233B3FBF2F303EB01130A
:103798000F2BD9D99BB2A3600020D7E76FF0570051
:1037A800D4E710B543681B6810201A681206FCD5C8
:1037B800EFF3118280F31288BFF36F8F1C68240621
:1037C80004D482F31188BFF36F8FEEE7596082F358
:1037D8001188BFF36F8F10BD08B543681868036878
:1037E8001A0701D5FFF772FF03689B0643BF4368BA
:1037F8000B7000204FF0FF3008BD03695B681B6841
:103808000B6043681B68DB6803F4C063B3F5806F23
:103818002FD0A3F5C06CDCF1000343EB0C030B7154
:1038280043681B681B6903F44053B3F5805F22D0DB
:10383800B3F5405F21D0002B0CBF012303234B714C
:1038480043681B68DA68DB68D20403F4C06316D5E2
:10385800002B14BF032304238B7143681B685B6927
:1038680003F44073A3F5407253425341CB710020D7
:1038780070470223D3E70023E1E70223DFE7002BA9
:1038880014BF02230323E7E710B5436904463BB995
:103898000020E268537843F001035370404210BDA2
:1038A80098470028F4D00028B8BF4042E368FF28B2
:1038B800A8BFFF201870ECE740B1C368587810F033
:1038C80001001EBF1878B0FA80F040097047EFF386
:1038D8001183102383F31288BFF36F8FFEE708B5B7
:1038E800FFF7F5FF08B51024EFF3118384F312886E
:1038F800BFF36F8FFFF71DFCF6E7D0E900321360C6
:103908005A600023C0E90033704708B5FFF7F5FF98
:10391800437B23F0020343730023836008BD10B583
:10392800EFF31184102383F31288BFF36F8FFEF730
:1039380093FC84F31188BFF36F8F10BD10B5014657
:10394800EFF31184102383F31288BFF36F8F437B47
:1039580013F0280F0AD183680BB1FFF7D6FF4B7B12
:1039680023F004034B730846FEF776FC84F31188B2
:10397800BFF36F8F10BD01211838FFF7DFBF38B5CF
:1039880004460D46FEF7C6FDB5F1FF3F08BFB4F18A
:10399800FF3F0346204610D013F109004FEAE371B8
:1039A80041F100010A220023FCF7EAFBB0F1004FC5
:1039B80071F1000128BF6FF0004038BD08B502461C
:1039C800FEF732FF70B1D0E904319B1A61EBE27265
:1039D800B3F1004F72F1000104DA002AACBF1846B7
:1039E800002008BD6FF00040FBE738B50246EFF352
:1039F8001185102383F31288BFF36F8F0368CBB14F
:103A0800FEF712FF04461046FEF720FF00224FF093
:103A180000438442C0E9042306D1FEF70DFFFFF7F7
:103A2800CDFF0021FEF714F9002085F31188BFF3BC
:103A38006F8F38BD6FF01500F7E708B5FFF712F87C
:103A480008BD10B5024601448A42134603D01C78CB
:103A58000132002CF8D1181A10BDF0B5C3F13707A0
:103A68000446FFB203F01F031046082BE6B233D01A
:103A7800102B3ED06508A40844EA817445EAC17554
:103A88002D194FEA910242EB5102290941EA0271CC
:103A98006D1842EB1212290A41EA02616D1842EBD5
:103AA8001222290C41EA02416D1842EB1242AD186C
:103AB80042F10002EC0844EA4274D10804EB8402A3
:103AC800A6EB4205EDB2092D0CD90134A5F10A0582
:103AD80041F10001EDB212E0E40844EA417406F055
:103AE8000705C908303554EA010200F8015BBCD16A
:103AF800F0BD240944EA017406F00F050909092DEF
:103B080084BFED19EDB2EDE70A44914200F1FF33AD
:103B180000D1704710B511F8014B03F8014F9142DD
:103B2800F9D110BD02440346934200D1704703F80F
:103B3800011BF9E7014800687047000014030020E2
:083B480074C6FF7F01000000BC
:103B500000000000E03B0008010700080000000032
:103B600000000000FC3B000800000000143D0008BD
:103B700000000000C03C000800000000183C0008E5
:103B800000000000F83C000800000000DC3C0008D9
:103B900000000000A43C000800000000883C000871
:103BA000000000006C3C000800000000503C0008D1
:103BB00000000000343C00087F31000800000000D5
:103BC00000000000303D0008C116000800000000A1
:103BD000C11B0008000000000112000800000000E6
:103BE000A047000800000000104000084600002028
:103BF00000000000E1140008000000002B4800084D
:103C0000BC410008004000085A00002000000000ED
:103C100000000000000000007447000800000000E1
:103C200000000000440000200000000025120008F1
:103C300000000000AD470008A0400008DC3F00087D
:103C400048000020B4030020C11700080000000055
:103C5000BB470008B4400008DC3F00084A000020D1
:103C6000C8030020C117000800000000C947000871
:103C7000C8400008DC3F00084C000020DC030020A6
:103C8000C117000800000000D7470008DC4000080A
:103C9000DC3F00084E000020F0030020C1170008A0
:103CA00000000000E5470008F0400008DC3F000885
:103CB0005000002004040020C1170008000000008C
:103CC000F347000804410008DC3F000852000020D0
:103CD00018040020C1170008000000000148000877
:103CE00018410008DC3F0008540000202C0400208C
:103CF000C1170008000000000F4800082C41000810
:103D0000DC3F00085600002040040020C1170008D6
:103D1000000000001D48000840410008DC3F00088A
:103D20005800002054040020C117000800000000C3
:103D30003C480008C04100082C4000085C000020FE
:0C3D400014000020B91A00080000000068
:103D4C00000000001F310008000000001F310008B7
:103D5C00000000001F310008000000001F310008A7
:103D6C00000000001F310008000000001F31000897
:103D7C009E470008B91200089C470008B9120008B9
:103D8C009A470008B912000898470008B9120008B1
:103D9C0096470008B9120008000000001F31000807
:103DAC00000000001F310008000000001F31000857
:103DBC00000000001F310008000000001F31000847
:103DCC00000000001F310008000000001F31000837
:103DDC00000000001F310008000000001F31000827
:103DEC00000000001F310008000000001F31000817
:103DFC00000000001F31000894470008B9120008A9
:103E0C00000000001F310008000000001F310008F6
:103E1C00000000001F310008000000001F310008E6
:103E2C00000000001F310008000000001F310008D6
:103E3C00000000001F310008000000001F310008C6
:103E4C00000000001F310008000000001F310008B6
:103E5C00000000001F310008000000001F310008A6
:103E6C00000000001F310008000000001F31000896
:103E7C00000000001F310008000000001F31000886
:103E8C0092470008B9120008000000001F3100081A
:103E9C00000000001F310008000000001F31000866
:103EAC00000000001F310008000000001F31000856
:103EBC00000000001F310008000000001F31000846
:103ECC00000000001F310008000000001F31000836
:103EDC00000000001F310008000000001F31000826
:103EEC00000000001F310008000000001F31000816
:103EFC00000000001F310008000000001F31000806
:103F0C00000000001F310008000000001F310008F5
:103F1C00000000001F310008000000001F310008E5
:103F2C00000000001F310008000000001F310008D5
:103F3C00000000001F310008000000001F310008C5
:103F4C00000000001F310008000000001F310008B5
:103F5C00000000001F310008000000001F310008A5
:103F6C00000000001F310008000000001F31000895
:103F7C00000000001F310008000000001F31000885
:103F8C00000000001F310008000000001F31000875
:103F9C00000000001F310008000000001F31000865
:103FAC00000000001F310008000000001F31000855
:103FBC00000000001F310008000000001F31000845
:103FCC00000000001F310008000000001F31000835
:103FDC000B350008713300087D3300088F3300085F
:103FEC0099330008A533000811170008B3330008F3
:043FFC0000000000C1
:104000006536000885360008A1360008BF3600086E
:104010005132000895320008000000002514000805
:0C4020003733000800000000DF32000809
:10402C00E1370008AB370008E73600087D190008B7
:04403C00033800083D
:104040004400000000400000143D00080000000093
:10405000C03C00080C000000C03C00080D0000003F
:10406000C03C00080E000000C03C00080F0000002B
:10407000000000200000000000000B06020000000D
:10408000844000080000000865470008260002067A
:10409000000000206D47000820000B1104000020E4
:1040A000FFFF000000200240080000003000000078
:1040B00000010000FFFF0000001C0240070000009C
:1040C0003000000080000000FFFF000000180240E8
:1040D000060000003000000040000000FFFF00006C
:1040E0000014024005000000300000002000000025
:1040F000FFFF00000010024004000000300000003C
:1041000010000000FFFF0000000C02400300000050
:104110003000000008000000FFFF0000000802401F
:10412000020000003000000004000000FFFF00005B
:104130000004024001000000300000000200000006
:10414000FFFF0000000002400000000030000000FF
:1041500001000000143D0008F83C0008DC3C0008A9
:10416000C03C0008A43C0008883C00086C3C0008E7
:10417000503C0008343C0008000000000000000033
:10418000000000000000000000000000000000002F
:10419000000000000000000000000000000000001F
:1041A000000000000000000000000000000000000F
:1041B0000000000000000000000000000038024085
:1041C00000440040FC3B000811040000E4410008EA
:1041D00001000000000000000000000000000000DE
:1041E000EC4100084000000000000200F44100081B
:1041F00001000000FC410008020000004700000030
:10420000000200006700000000000000503B0008B2
:10421000503B0008D03B0008D83B0008E03B0008BA
:10422000E03B0008001000000030546F67676C65C9
:1042300064204C454425750A00425554544F4E2085
:104240007261773D256420707265737365643D25E6
:10425000640A004C45442575204750494F20646549
:1042600076696365206E6F742072656164790A00F7
:104270004661696C656420746F20636F6E66696760
:10428000757265204C45442575202865727220257D
:1042900064290A00427574746F6E204750494F209C
:1042A000646576696365206E6F74207265616479F8
:1042B000004661696C656420746F20636F6E666987
:1042C0006775726520627574746F6E2028657272EE
:1042D000202564290A00427574746F6E206F6E2069
:1042E00025732070696E20257520636F6E6669677F
:1042F000757265643A2050554C4C5F444F574E20C0
:104300002B204143544956455F484947482028647B
:10431000745F666C6167733D30782578290A004CBC
:1043200045445F426C696E6B20737461727465649E
:104330002E20486F6C64205553455220627574746A
:104340006F6E20746F207475726E20616C6C204CDF
:10435000454473206F6E2E0072302F61313A202059
:10436000307825303878202072312F61323A202081
:10437000307825303878202072322F61333A20206F
:104380003078253038780A0072332F61343A202093
:10439000307825303878207231322F69703A2020F9
:1043A000307825303878207231342F6C723A2020E2
:1043B0003078253038780A0020787073723A2020DF
:1043C0003078253038780A004661756C74696E67FC
:1043D00020696E737472756374696F6E20616464B2
:1043E0007265737320287231352F7063293A20303B
:1043F00078253038780A00556E68616E646C6564A3
:10440000204952516E3A2025640A002A2A2A2A2A73
:10441000204D5055204641554C54202A2A2A2A2AFC
:104420000A002020537461636B696E6720657272A5
:104430006F722028636F6E74657874206172656195
:10444000206D69676874206265206E6F74207661E4
:104450006C6964290A002020556E737461636B696E
:104460006E67206572726F720A0020204461746169
:10447000204163636573732056696F6C6174696F63
:104480006E0A0020204D4D46415220416464726501
:1044900073733A20307825780A002020496E7374AF
:1044A00072756374696F6E20416363657373205620
:1044B000696F6C6174696F6E0A002020466C6F61D1
:1044C00074696E672D706F696E74206C617A7920E3
:1044D0007374617465207072657365727661746956
:1044E0006F6E206572726F720A002A2A2A2A2A20A9
:1044F0005553414745204641554C54202A2A2A2AE3
:104500002A0A0020204469766973696F6E206279F7
:10451000207A65726F0A002020556E616C69676EA3
:104520006564206D656D6F72792061636365737377
:104530000A0020204E6F20636F70726F6365737383
:104540006F7220696E737472756374696F6E730A2B
:10455000002020496C6C6567616C206C6F61642081
:104560006F66204558435F52455455524E20696E40
:10457000746F2050430A002020496C6C6567616CA1
:1045800020757365206F662074686520455053520E
:104590000A002020417474656D707420746F20656A
:1045A00078656375746520756E646566696E6564AB
:1045B00020696E737472756374696F6E0A002A2ABB
:1045C0002A2A2A20425553204641554C54202A2A53
:1045D0002A2A2A0A002020537461636B696E6720BF
:1045E0006572726F720A002020507265636973658C
:1045F000206461746120627573206572726F720A43
:104600000020204246415220416464726573733A2F
:1046100020307825780A002020496D707265636922
:104620007365206461746120627573206572726FB6
:10463000720A002020496E737472756374696F6E1C
:1046400020627573206572726F720A00526573651D
:104650007276656420457863657074696F6E202892
:104660000053707572696F757320696E746572722C
:1046700075707420284952512000535053454C20E6
:10468000696E20746872656164206D6F6465206472
:104690006F6573206E6F7420696E64696361746501
:1046A000205053500A002A2A2A2A2A2048415244DC
:1046B000204641554C54202A2A2A2A2A0A00202022
:1046C000427573206661756C74206F6E2076656329
:1046D000746F72207461626C6520726561640A0097
:1046E00020204465627567206576656E740A002037
:1046F000204661756C7420657363616C6174696FC9
:104700006E20287365652062656C6F77290A004109
:104710005243485F45584345505420776974682098
:10472000726561736F6E2025780A0A002A2A2A2A88
:104730002A204465627567206D6F6E69746F722000
:10474000657863657074696F6E202A2A2A2A2A0A9E
:10475000002A2A2A2A2A20257320256429202A2A89
:104760002A2A2A0A00464C4153485F3000535241DE
:104770004D5F3000696E746572727570742D636F71
:104780006E74726F6C6C65724034303031336330EC
:1047900030000A06050504010301020101010001C0
:1047A00072636340343030323338303000677069C0
:1047B0006F403430303232303030006770696F40D3
:1047C0003430303231633030006770696F403430DC
:1047D000303231383030006770696F4034303032F9
:1047E00031343030006770696F40343030323130EE
:1047F0003030006770696F403430303230633030B1
:10480000006770696F4034303032303830300067C4
:1048100070696F4034303032303430300067706946
:104820006F40343030323030303000726573657430
:104830002D636F6E74726F6C6C6572007365726954
:10484000616C4034303030343430300000000000CF
:104850000000000001020304060708096D61696E8B
:10486000002A2A2A20426F6F74696E67205A657089
:10487000687972204F53206275696C642076342EFB
:10488000332E302D333032372D673534356332389F
:10489000373065393335202A2A2A0A00286E756C8C
:0C48A0006C29002A666C6F61742A00000D
:1048AC00E130000800000000753100080000000035
:1048BC0000000000000000001C00002000C20100ED
:1048CC00000103000024F400C80000002C000020AC
:1048DC002C000020FFFFFFFFFFFFFFFFFFFFFFFF8C
:0448EC00FFFFFFFFCC
:1048F00000000000000000000000000000000000B8
:0C490000000000000000000000000000AB
:04490C0015E015E0BD
:0400000508000CA142
:00000001FF
